{
  "_format": "hh-sol-artifact-1",
  "contractName": "faucet",
  "sourceName": "contracts/RinkebyFaucet.sol",
  "abi": [
    {
      "inputs": [],
      "stateMutability": "nonpayable",
      "type": "constructor"
    },
    {
      "inputs": [],
      "name": "send",
      "outputs": [],
      "stateMutability": "payable",
      "type": "function"
    },
    {
      "inputs": [],
      "name": "withdraw",
      "outputs": [],
      "stateMutability": "payable",
      "type": "function"
    }
  ],
  "bytecode": "0x608060405234801561001057600080fd5b50336000806101000a81548173ffffffffffffffffffffffffffffffffffffffff021916908373ffffffffffffffffffffffffffffffffffffffff1602179055506101f3806100606000396000f3fe6080604052600436106100295760003560e01c80633ccfd60b1461002e578063b46300ec14610038575b600080fd5b610036610042565b005b6100406100f8565b005b60003373ffffffffffffffffffffffffffffffffffffffff16662386f26fc1000060405161006f9061012b565b60006040518083038185875af1925050503d80600081146100ac576040519150601f19603f3d011682016040523d82523d6000602084013e6100b1565b606091505b50509050806100f5576040517f08c379a00000000000000000000000000000000000000000000000000000000081526004016100ec9061019d565b60405180910390fd5b50565b565b600081905092915050565b50565b60006101156000836100fa565b915061012082610105565b600082019050919050565b600061013682610108565b9150819050919050565b600082825260208201905092915050565b7f7769746864726177206661696c65640000000000000000000000000000000000600082015250565b6000610187600f83610140565b915061019282610151565b602082019050919050565b600060208201905081810360008301526101b68161017a565b905091905056fea2646970667358221220659f90f69c08cd3cdca13bfa19ea0de964bf9f8e23f6fde9aa5fc57ab8ea602364736f6c63430008090033",
  "linkReferences": {},
  "deployedLinkReferences": {}
}